:020000041000EA
:1051840040BA704740BA7047C0BA7047C0BA704757
:10519400FFB583B014460F46104602F0C5FD0190DA
:1051A400200A040225460B350090284602F0BCFD77
:1051B40000263F2808D03889062808D029463846D2
:1051C400069A02F0B7FD0126304607B0F0BD0198FB
:1051D400000701D50226F7E73878002812D03428D2
:1051E400F2D10520E11D18232A46400202F0A8FD51
:1051F40006218180052181710721C171A1490968B6
:105204008847E1E7B91D009801F0D0FDDCE7F8B567
:10521400100A00021F4616460C460B3002F084FDAD
:105224003F2831D0984821888089002805D0821DE4
:10523400944D914203D1022410E00022F8E70028A3
:1052440004D0821C914203D1002407E00022F9E734
:10525400002800D0001D81420AD101248B48006837
:10526400012381B232468A4802F06AFD047009E0E3
:10527400062332463946874802F062FD21880180C0
:1052840080210171296888470020F8BDF8B5100A0B
:10529400000217460C460B3002F046FD3F2852D060
:1052A400390A2278090200267A48774D0931002A02
:1052B40004D0012A17D0022A45D125E06288921D24
:1052C40093B23A4602F03CFD0746A889002800D074
:1052D400801C38803E7162887A80211D781D02F01E
:1052E40035FD38462CE008233A4602F029FDA98909
:1052F400002900D0091D01800671022141806288C5
:105304004271120A82711BE00E233A4602F018FD24
:10531400A989002900D0891D0180067108214180D6
:1053240062884271120A8271A288C271120A0272E0
:10533400E2884272120A82722289C272120A0273CB
:105344005049096888470020F8BDFFB5140A2002B7
:10535400401C81B080B202F0E7FC002850D0142831
:105364004ED0152812D04C4EA700F05931210A5CBA
:10537400D1060ED5014640314B7D002B09D00120CA
:1053840048753D21204602F0E7FC39E0022005B0D3
:10539400F0BD110703D5002140304175F6E73F49C0
:1053A400E01C896C06225043081802F0DBFCF1591A
:1053B400054601204031487500203749029ECA59EC
:1053C400014636182931535C7678401C3340C0B20C
:1053D40053540828F1D330480122C059818B11431A
:1053E40081830920287008222D49681C02F0AEFC34
:1053F4006878FD21084068700921204600F008F80B
:105404000020C4E710B52749142002F0B1FC10BDF8
:10541400F8B50646C01C84B220480F46816C0620AD
:1054240060430D183002401C80B20090204602F008
:10543400A5FC1948B60081592031497CC90701D01F
:105444003F1DFFB23902C91C6980054680594030AE
:10545400817C491C81741449E0004118A859083121
:10546400806802F091FCA859806802F093FC0098CF
:1054740002F05AFCA95948831521009802F090FCC7
:10548400F8BD0000E4000410E4080410180004103F
:105494000A0E0000140C00003C0804105C0B0410FD
:1054A4006CE60100F48200105C0A041010B510468A
:1054B4000C4602F039FC07CC02F023FA002010BDA0
:1054C40070B51446104602F02FFC284800680623E5
:1054D40081B22246264802F033FC0446002002F042
:1054E4006AF805460421A01C02F060FCA57029128C
:1054F400E1700912217109126171012060700020AC
:105504001C492070096820468847002070BD70B58A
:105514001446104602F008FC14480068062381B2C1
:1055240013482246401C02F00BFC0446002002F003
:1055340070F805460421A01C02F038FCA570290A65
:10554400E170090A2171090A61710120607000206B
:1055540008492070096820468847002070BD10B5AE
:105564000549152002F004FC10BD000018000410C9
:1055740001380000E40004103483001010B53248F0
:1055840000240460314941603148017B491C0173A6
:1055940001688C6000682F49884201D10C2000E02A
:1055A4000D2000F049F828484038046110BD70B55A
:1055B400294C0125012818D00D2000F03DF868037E
:1055C400206026480122264912079160254A02607C
:1055D400032181601E4908608A60002008730D71F0
:1055E400224921480968884770BD0C2000F024F83E
:1055F4000120000320601748E4E7154901200968E9
:10560400C860704710B512480021026891600068B4
:10561400114C8034012809D00D2000F00DF8012030
:105624004003206012480068804710BD0C2000F041
:1056340003F801200003F4E7C106C90E01208840E5
:105644000C4908607047000040F00040785634125E
:10565400D88400100080004000E100E00090004089
:105664008155001000B6FB5C80C8BC451082001058
:105674001482001080E200E010B51449012009688A
:10568400C8601348006880470120124980060860FA
:1056940010BD10B501210D4A890711600D4B0A1187
:1056A4001A600E4C0C4BA3628860092008600C48F9
:1056B400026010BD05490020096808600120054901
:1056C400800608600649803108607047188200101F
:1056D4000882001080E200E07D5600108000001077
:1056E40000E100E01CB5644F00243C6063480460A2
:1056F400012002F061FB02F065FB6148006880470D
:10570400604E307B4007400F032803D85E490020D9
:10571400096888475D48017800290ED05CA106C954
:1057240001920091047000220521684602F050FBAA
:1057340000220521684602F051FBB068400003D402
:10574400554908780028FCD05549544D09686868C3
:10575400884700F077FD53480068052803D10120ED
:10576400C00302F041FB5049032002F043FB00F068
:10577400D6FC00F067FDA8688047B06840000AD4F2
:1057840028780128FCD16878002804D06C70484936
:105794004648C860FEE702F033FBFFF733FEFFF72D
:1057A400DEFE44480068804762B6434802F02EFBA0
:1057B400307B000701D502F02FFB40484168821579
:1057C400914341603E490620096888473D490C20C1
:1057D40088613E483C490160090741603C4D274EC1
:1057E4003C480078002813D03B48017800290FD0AA
:1057F40004702C480068082381B20322374802F061
:105804009FFA374904710968016036490968884775
:1058140002F008FB2868012806D12C603248016890
:10582400002901D0006880473068002805D0386816
:10583400002802D03968114888472C4800688047FE
:105844000028CDD02A4802F0F3FAC9E70146002027
:1058540000290DD0022908D10F490A78022A05D05F
:105864000978012901D11948083070472148704747
:105874002048103870470000D41F0410D81F0410AB
:105884006001041028080410C0010410250004104D
:10589400424F555421000000D900041000000410A8
:1058A40004010410180004107D6300100400FA05BC
:1058B40000ED00E054010410BC03041000F40040A7
:1058C4001002041000E20040916900611C82001083
:1058D4004C83001098820010648200103B03000087
:1058E4009C820010E4000410440104100C01041014
:1058F400EC050410CCE20100004E3047F0B5FE4A3E
:105904001668FE49FE4BFE4840338C12CD12002E21
:1059140026D0866857680E403F07FF0F7F04374341
:1059240087609E680E4051680907C90F49043143D6
:1059340099604169536821405B07DB0FDB010B432E
:1059440043614169536829409B07DB0F9B010B436B
:105954004361EC4943690B405168C907C90F2EE004
:10596400E94AD668760DF6072CD1D668360DF607C7
:1059740028D08668D7680E403F03FF0F7F04374363
:1059840087609E680E40D1680903C90F49043143FA
:1059940099604169D3682140DB04DB0FDB010B43D1
:1059A40043614169D36829401B05DB0F9B010B430D
:1059B4004361D44943690B40D1684905C90FC90300
:1059C40019434161F0BDD1480168D148012915D07E
:1059D40000210161CF494868012210434860CE4943
:1059E40088698A1590438861CC480068002804D1EE
:1059F400CB4908690422104308617047016909070B
:105A0400090FE6E7C74FC84C0026386880470028CE
:105A14000DD1207A02280AD002F010FA0228FBD015
:105A240002F00CFA002802D100BF01202072207A73
:105A34000025002847D001285AD00228E5D1BB48C8
:105A44000088002802D0BA480068804702F0FCF9B8
:105A5400B8490868002806D0AC480068012802D07C
:105A64000968012088476078002801D002F0F2F923
:105A740002F0F6F9A048C169A7484030016102F07C
:105A8400F5F9AD4800688047AC48006880479E48F7
:105A9400C0684007400F032803D8A94901200968BA
:105AA4008847A078401CA070206A002801D0206A92
:105AB4008047A16A01208847A24800688047FFF711
:105AC40082FF62B61BE0E079002800D130BF9E4D12
:105AD4002878012899D102F0CFF92E7002F0D2F97A
:105AE4009A480068002890D1984802F08FF98CE712
:105AF400042002F0CDF938688047002801D02672CE
:105B040083E702F0CBF98448403001697A48C161E7
:105B140002F0CAF90028FBD102F0AEF902F0CAF98A
:105B2400207A0228E3D00220207289480078C00736
:105B340005D00120400405432079401C207161797F
:105B44000120491C61710521090480040D430543AA
:105B54006670E078401CE0707E480168002901D03E
:105B6400006880477C49012009688847664F387C73
:105B740001281DD0002079492843084302F0A0F9E8
:105B84003E74A16A00208847634881690222114358
:105B9400816173488169C022914381618169821561
:105BA400914381616F4C206880470028FBD1FEE758
:105BB40001204002DFE710B5EFF3108472B66A48A3
:105BC40002684168521C00235941026041606748E1
:105BD4000068400001D402F05BF862B684F31088D8
:105BE40010BDF8B56248816BCE06816BF60E89054F
:105BF400CA0E816B806B0D0E0C210D400005800FC9
:105C040005435B4803248030406B3D49C001C30F0A
:105C14004869002E04D01F277F02B8437602304320
:105C2400002A04D01F267604B0435204104348616E
:105C3400486880088000002B2FD0204348604D49DD
:105C44007C2048604C4B3248591CC03001604B4AA0
:105C54004B49521E0A605B1D4360274B0C334B605B
:105C6400484BDC1C84608A60DB1DC360224B10330C
:105C7400CB60454BDC1C04610A61DB1D43611E489B
:105C8400143048613E493F20403108601A4F3F4C70
:105C9400387A3F4E012803D0ADE001221043CDE70E
:105CA40024490868002802D0096801208847394837
:105CB4000021016038480160394A384810603A4A86
:105CC4003848106014480068384A904201D1384876
:105CD40000E03848384A9060002D06D050680F2301
:105CE4001B0498432B0403435360354A3348108004
:105CF400344A0420108067E034820010FFFFFDFF67
:105D040000080240FF7FFFFF28080410C81F04108A
:105D140000B200400040014000B00040A4840010E4
:105D240000ED00E08C0104101C0004109400041029
:105D3400A00004100482001070010410600104101B
:105D4400C00104105401041041010410EC050410B6
:105D5400680104100C8200101002041001004000BD
:105D640000E20040880104104002041000E200E058
:105D740000A0004000510240579E0100FD58001051
:105D840000B30040099F0100F552000040E00040CC
:105D940096000410C41F0410DC1F0410A17100102D
:105DA400D01F041041720010CC1F0410B100200059
:105DB400068C0000060C000000F40040C40900003A
:105DC400668200109C000410224820602248606013
:105DD400234A224810802348E06023482061234856
:105DE40030803088A060224A012050610320214A7B
:105DF400800350613972B9691F480268914218D012
:105E04000168B9610068002808D015481B49018061
:105E14001B48E0601B4820611B4807E010490F48FD
:105E240008801048E06010482061104830803088B5
:105E3400A0601649486807221207104348600A48C0
:105E44001349401E0862F8BD012112480907486041
:105E540002F03CF80000020303040506D705000025
:105E64009000041017160201031600001C290000FC
:105E740000F0004000000140A4840010A6040000CB
:105E84000D0C0201030C0000121F00000040024030
:105E940040180440ADE10100F8B53A4C20690028EF
:105EA40006D039480068002802D1374801F0AEFF17
:105EB400364E374F2569002D63D0280603D5802040
:105EC400A06102F009F8A80703D50220A06102F03E
:105ED40009F8280707D50820A061002002F008F877
:105EE4002C4801F0D9F9E80505D5FF200130A0615F
:105EF400012001F0FDFFA80504D501204002A061A6
:105F040001F0FCFF680603D54020A06101F0FCFF0E
:105F1400E80603D51020A06101F0FCFF68071ED538
:105F240018490120C031C863C86B0028FCD1E0695E
:105F34001949086019490420096888470420A061A8
:105F440017490020086217480068804730880028F5
:105F540005D03868804701F0E3FF01F0BDFFE80792
:105F64000AD03088002807D10120A0613868804712
:105F740001F0D6FF01F0B0FFA8069BD52020A06158
:105F840098E7F8BD00000440EC05041094000410E8
:105F940074010410A4830010548200101002041031
:105FA40000B0004010010410029E04B000E00000A4
:105FB40070B58B8806225343114A00249B185C83D6
:105FC400EFF310840F4B72B61D686D1C1D60836B5C
:105FD4003830002B0ED08D880626754343680A4E50
:105FE4009B88AD19062673439A18538BDB0BDB038E
:105FF4002B43538301F09AFF62B684F3108870BD7B
:1060040080030340588200109A030000FEB5044642
:1060140001F092FF009001F095FF0746207A254693
:106024000007000F643501902646A878243600281E
:106034000AD101F08DFF00F09BF829480168491C42
:106044000160284901200872304601F087FF21468B
:10605400254801F06BFFA9782448002903D1009951
:10606400F94200D00188019902228B002049591875
:106074000A80F28D4A80009AA978D21911431D4DE5
:106084001D4A20D10188C9071DD0164900230B8061
:106094002D68002D00D001231380184A0123D363F7
:1060A400D36B002BFCD1154AC03A126A4A60496886
:1060B400E62907D3A2681249521E4A6282880A62FC
:1060C40040888862FEBD0749012008802B68002BA8
:1060D40001D0042300E0032313804880FEBD0000A8
:1060E4009C8200105C8200105C0804107C00041088
:1060F40000000340A48400109C000410C00004406D
:1061040040400240164909684843810AC20B891875
:10611400000C0818FF30FF300230800A704770B559
:10612400104C2088FFF7EEFF0F4B06461888FFF748
:10613400E9FF85B25888FFF7E5FF7105AA0280B22E
:10614400114301430948C16358882188814200D919
:1061540008461988884200D8084601F005FF70BD3A
:106164000402041066820010900004100000044031
:106174000548064A806C017A01815269127B921D9E
:1061840012021143018170475C0B04107008041063
:1061940010B5054C60690068002804D001F0EAFEDF
:1061A40061690020086010BD7008041010B5040A6D
:1061B400C0B2102834D00EDC0C2823D006DC03280F
:1061C40017D00A2820D00B2811D119E00D2813D09C
:1061D4000E280CD112E037281AD004DC112815D06F
:1061E400122804D11AE0382814D0392814D001F028
:1061F400C7FE2102084310BD0A20FAE70B20F8E786
:106204000820F6E70920F4E70720F2E70520F0E785
:106214001420EEE71520ECE70E20EAE70620E8E775
:106224000420E6E770B505464C79702004432846FF
:1062340001F0ACFE014600232246284601F0ACFEE4
:1062440070BD000010B5032001F0ACFE024903202C
:1062540001F08EFD10BD00004C81001070B5184691
:106264000D46014600248223404801F069FD697906
:106274002A68002901D0802901D9122127E02B792D
:10628400082B08D0102B0FD0202B1BD01EE0135D41
:106294000519AB70641C8C42F9D316E0135B051925
:1062A400AB701B0AEB70A41C8C42F7D349000CE0C2
:1062B40013590519AB701B0AEB701B0A2B711B0ACF
:1062C4006B71241D8C42F3D389004170002101704D
:1062D400014642780C39921C4A812549096888474D
:1062E400002070BD10B518460C46014667200123F6
:1062F400C00001F025FD1F4A2178117000210170B2
:106304001B4909688847002010BD184810B5194674
:106314000823203001F014FD00210171154949685A
:106324000160134909688847002010BD0F4810B563
:1063340019460123213001F003FD0E4A002151606A
:1063440001700B4909688847002010BD10B50A790F
:10635400CD208000002A04D00A68194601F028FEE6
:1063640002E0194601F02AFE002010BD19030000C6
:10637400E40004109882001010B5032001F024FEFC
:106384000C4C206901F0F6FD206A002803D001F0CE
:1063940021FE002020622068002805D0054801F075
:1063A4001FFE01F023FE10BD0021042001F0F8FCC3
:1063B40010BD0000B00B0410039E06B004E0000002
:1063C400029E05B070E00000F0B58E4671490022CF
:1063D4000B6814465B1C0B60C01C83089B001B1DD0
:1063E4000C2B00D20C23EFF31080844672B6704657
:1063F40020188007010F68481D4608188069674EF9
:106404000C3512E00788B74200D0FEE747889F4268
:106414000AD3AF4202D28168002905D0002A02D0F3
:106424005188B94200D9024640680028EAD1002ABE
:1064340003D05088A84200D20346641CE4B2042C62
:1064440002D2002AD3D001E0002A0ED0508898420C
:106454000CD19068002801D0516841605068002830
:1064640001D091688160104604E0FEE7C01A80B252
:106474005080801843804A490180614662B681F3A6
:106484001088001DF0BD10B503469A00424C5B0015
:10649400121992691B1900201B8D914203D3D21843
:1064A4008A4200D3012010BDF8B58446394800273C
:1064B4004168491C41606146002908D00D1F2988A4
:1064C400374A914204D08168491C8160F8BDFEE7D7
:1064D400344828806E880024EFF31080009072B650
:1064E40061463846FFF7CFFF002804D02A48B90098
:1064F4000818846901E07F1CFFB2042F02D2002C2B
:10650400EED001E0002C01D0A44500D8FEE72349D9
:10651400002022888A4200D0FEE762881219AA422B
:1065240011D16088801981B2618060680A19824241
:106534002BD14288891861804168616040680028D5
:1065440023D0846021E0A54215D2002800D0456004
:10655400A860A8192980A04209D1606868606068B1
:10656400002800D085606088801968800DE06C6028
:10657400A5606E8009E020466468002CC9D1002221
:1065840045606A60A8606E80298062B6009880F3D6
:106594001088F8BDA0820010D40B04105AA5000086
:1065A400388300000FF0000010B58149002009680D
:1065B400002910D07F488049006806E082888A421A
:1065C40002D18279092A07D000680028F6D1012077
:1065D40001F012FD012010BD754801F001FD0146D6
:1065E400744801F0A3FCF5E7F8B505460446734882
:1065F4000C3CC06A7249C007C00F0090E08809686B
:1066040088423AD1A0886F4988420CD11B2001F0FE
:10661400B7FC064601F088FB01282ED10021304644
:1066240001F0BEFB29E00D210902884215D16089E1
:10663400022822D12046617B0C30442901D045290F
:106644001BD100780C2805D00D2803D00E2801D0CA
:106654000F2812D1FFF79CFD0FE05A49891E88428A
:106664000BD120895849000A80000858002804D01A
:106674004030417FFD2211404177E18805290AD04D
:106684002046A2884C4E00270C30B2423AD1CAB2FE
:10669400092A09D036E00120800301F0A5FB214638
:1066A4004A4801F0AFFCF8BD807A52282AD1084646
:1066B40001F03AFB000716D4EFF3108172B63C48A0
:1066C400006800281AD13B4805E08288B24202D112
:1066D4008279092A12D000680028F6D162B681F3C3
:1066E4001088002F0ED0EFF3108572B63048214683
:1066F40001F01CFC62B685F31088F8BD62B681F324
:106704001088F0E7EFF3108772B62A48214601F0AB
:106714000DFCA0882E4988420CD1A079092809D102
:10672400234801F05DFC002804D0224A01461046AB
:1067340001F0FCFB62B687F31088A0880146FF399C
:10674400123902D1A179012906D02149C91E8842F2
:1067540007D1A1790B2904D1E188090A090214316E
:10676400E180B0420AD1E088C1B20B2906D129895F
:10677400062903D1000A00021430E080E0880428CE
:1067840011D0208904280ED10098002804D0114883
:106794000068002804D006E00F490120086202E0E6
:1067A4000C4801F033FB012001F026FCF8BD000089
:1067B400AC820010D40B0410010A0000C0B10040E8
:1067C40018000410030E0000C4080410200C041068
:1067D400160C0000EC05041000B00040AF49022282
:1067E40000280BD08868400840008860C869AC4B1A
:1067F4001840C861C8691043C8617047C8699043AC
:10680400C861C869A64AD2431043C8618868012296
:10681400104388607047A14948695522C009C001E6
:1068240010434861704710B59F489E4901609F49D5
:1068340041609F498160FFF761F8984948690322E4
:1068440012049043012252041043486110BD994937
:1068540008680122520610430860974908684122DB
:1068640052049043954A1268002A01D1944A9043F5
:1068740007221205904308607047FEB50024914F2B
:10688400914EFFF7C8FF0120FFF7A8FF8F482505A9
:1068940028180D2101F0BCFB01908D480D2128180A
:1068A40001F0B6FB00908B4861000D188004294666
:1068B40001F0B4FB874A2946504301F0AFFB854AF7
:1068C4002946504301F0AAFB9D2148430121490474
:1068D40040189D21800C0902421821460C2359437B
:1068E400019878507C4BC8194360826000987050BE
:1068F4007A4889194860641CE4B2282CC6D3012262
:106904007748D2050260774B436000218160764C62
:10691400C460016141618261C36102624462816257
:10692400C1620846FFF75AFFFFF77DFF70486F49C1
:1069340001604168802291434160FFF788FFFEBDFA
:1069440010B5FFF768FF0020FFF748FFFFF76BFF64
:10695400674948688A1510434860FFF778FF10BDFF
:1069640040B2704710B500221521624B090202E0C3
:10697400C4182260001D8842FAD310BD5F495E48E6
:1069840008605E484038026BC1038A430A430263CD
:10699400704748495A48803148605B4859494161C9
:1069A4005A4981615A49C1615549133101623E48CE
:1069B4004030C168574A8909126889011143C1608E
:1069C400364881680122920391438160704710B573
:1069D40004460020FFF7C6FF03204F490004C862A5
:1069E4004E4820624E4860624E48606106212C2069
:1069F40001554D48A0624D4820604D4860604D48A7
:106A0400E061FFF7BBFF01F00FFB4B4900208860FA
:106A14003A484038816B09010909820511438163B1
:106A24001E4903204863092044498005C860FFF7D4
:106A340024FFFFF7AEFF10BD10B5414800880028C1
:106A440003D005200002FFF78DFF3E480068134C79
:106A540060613D4800681449486103202E490004E0
:106A6400C862FFF78BFF01F0DFFAFFF7BAF823489B
:106A74004038816B09010909820511438163334858
:106A8400006880470320606309202C498005C860A2
:106A9400FFF756FFFFF77DFF10BD00000000024026
:106AA400FFCFEFFE022400000008024011EE38641C
:106AB400E40E01000018044080010240A484001088
:106AC4000007000400280240002A02400700104B7F
:106AD4000700184B62090000AF553D42AF55014213
:106AE400002C024060800400608000000701600FF9
:106AF40000F400400000034056074A0580000440AB
:106B040003030000FFE8D6D600190440C4AF9981FE
:106B14006A510000B4820010801A044045B6010096
:106B240037B601005BB3010063B301002FB301006A
:106B340049B301006569001000F0004000400240C4
:106B44005C820010BC820010C0820010840104101A
:106B540001218903884200D30846824909684843D1
:106B6400C10A420B5118420C5118820C5118C20C24
:106B74005118020D5118820D5118020E5118420E6F
:106B84005118820E401C5118800F401800D0401E2E
:106B940070477047FEB5744800260090EFF31080EC
:106BA4000190724C72B60120608001F043FA002813
:106BB4007ED002200126608001F040F90228FBD03B
:106BC40001F03CF90028F3D0032060806848006895
:106BD4008047002803D067480068800768D4634D65
:106BE400042060800C35E8780028E1D0052060801E
:106BF400288800285CD106206080FFF7D5FC002897
:106C0400F8D1072060805C480088002804D05B48E5
:106C1400A97800880F1802E0A8786168471808204E
:106C2400608057480088002803D001F009FA002842
:106C340053D0092060803946684601F007FA0028DD
:106C440036D00A20608001F007FA002830D00B20EB
:106C540060803946684601F005FA00287CD001F0CE
:106C640007FA002837D001F003FA0099C0088142DE
:106C740072D9081A0090414F398888426CD33988F8
:106C8400401A052868D30C20608001F0F7F9002829
:106C940023D00F206080364800688047002803D046
:106CA40034480068800757D410206080002000E03A
:106CB40052E0344908623448C06834498006800E82
:106CC400086001F0E1F901F0E5F9274900988842EC
:106CD40005D100200BE00098CDE700263CE02649D2
:106CE4000988002901D0398800E06168401A0090C1
:106CF4001120608026490120C863C86B0028FCD19C
:106D04002348C038C069234F38600098FFF720FF3C
:106D1400A060122060802979A06801F0C1F90120E7
:106D24001D49800708602078401C20701320608073
:106D34001A488169FF22C1321143816118484069B0
:106D44007860114840384069B8601648806A8047C6
:106D5400154801684900FCD562B6019880F3108893
:106D64003046FEBD04020410FFFF0000F0000410D2
:106D74008C01041000E00040940004109C000410F6
:106D84005E82001000B0004040080240B48200104F
:106D9400C0000440B882001000E100E000E20040BE
:106DA40000000240900D041000E200E038B50546F2
:106DB4000C46084601F07AF969460870002818D094
:106DC400072815D00A460521284601F075F92079CF
:106DD40001280DD00B280BD0284601F0D7F8014626
:106DE40068460278602002430123284601F0D4F863
:106DF40038BD2079034980000A5821462846904727
:106E040038BD000068820010C106C90E0120884008
:106E1400364908607047C106C90E012088403349CD
:106E2400803108607047C106C90E0120884030498E
:106E34000860704770B501F045F90125ED036C1049
:106E440063102C4A002812D000201060401E90636A
:106E54001820FFF7E8FF5069284350615069204328
:106E640050615069184350611820FFF7DCFF224835
:106E7400906322480168890706D0D16A2943D16208
:106E8400116B29431163156201688906890F06D0C5
:106E9400D16A2143D162116B2143116314620068EA
:106EA4008005800F06D0D06A1843D062106B184357
:106EB400106313621820FFF7A7FF1F20FFF7A4FF3A
:106EC4001520FFF7A1FF1B20FFF79EFF70BD10B533
:106ED4000B48052181700B4A01211162406800288A
:106EE40001D00948016001F0F3F810BD00E100E0B1
:106EF40080E200E000100140FFFF000000F00040CD
:106F04004001041000B000404C830010F8B54F4815
:106F14000078012601281BD14D484068012817D16B
:106F24004C48816A4C4A11404C4A11438162C16AFF
:106F34004B4A11403143C1624A4988684A4A104069
:106F44004A4A104388604868772212029043486096
:106F5400474805686869C00701D02869FAE74548C9
:106F640000688000400F030001F0B8F80805080B22
:106F74000E1114171A1CE124640213E0E124A40284
:106F840010E0E124E4020DE0E12424030AE0E1241A
:106F9400240207E04B24640204E04B24240201E0B1
:106FA4004B24E401344807683448214647433846B3
:106FB40001F034F882B220465043391A00202309E4
:106FC40002E0401CC0B2C91A8B42FAD3401C4108EB
:106FD4000020A862D2000A436A6229490E6021494E
:106FE40080310A68120912010A60A860A8690221A6
:106FF4000843A861F8BD30B4224B1D4C9A60196057
:10700400586024680A290DD10578042D0AD14578E1
:107014000E2D07D105791F2D04D14079202801D1E7
:10702400491E1960002908D06068C007FCD0586860
:1070340005782560401C5860F2E700205860002A5B
:1070440002D0986030BC104730BC7047D90004109F
:107054005083001080B10040FFFFC0C00000030255
:10706400C0C0FFFF40B00040FF8888FF001111003E
:107074005C01041028080410C01F0410102700002D
:1070840000E100E068190410FEB53A49384809687F
:107094008847394D0020384A384B503D411C26243E
:1070A400490744430A26490FA4184643F7187C802D
:1070B4000A246143314C4919403C34196187401C0E
:1070C4000828EBDB2E4C2068F0218843E02108439C
:1070D40020602B489621C030026B520A52020A43A8
:1070E4000263016B274A1140274A11430163274871
:1070F400E0602068E10088432060206849108843EC
:10710400206006222249684600F020FE694608886D
:10711400498809040143616269468888A06220683D
:1071240061158843084320601548072180300161B8
:107134001649183901631549243141630E49C03990
:10714400816314480A21007C48434019E062FEF739
:10715400E6FF012000F0C8FF00F0CCFF0E480078E5
:10716400002801D000F0CCFF00F0D0FFFEBD0000ED
:10717400900D0410EC000410CA0A0000800A0340B9
:1071840000000440FFFF00FC0000E5013A0300009A
:10719400B2F801009C0B0410A4000410F8B50F46CB
:1071A4002A49064609681546052088472849C868BB
:1071B4000122800FC007274C00281ED00020C86081
:1071C400F30705D0B30702D50323CB6000E0CA6000
:1071D4002668700019D000202060032000F09CFF76
:1071E40001204002430100E02668002D03D0194627
:1071F4003142EDD0F8E70146FAE7F00705D0B007D1
:1072040002D50320C86000E0CA60002D02D0012D21
:1072140003D005E06760226002E06760022020601E
:107224002068012D01D0F8BD2068C104FCD581047B
:10723400FAD54004F8D500202060F8BD05480021A7
:10724400416001600168022101607047100204106E
:1072540000E0004000D0004010B5F84A5169F84BF6
:10726400C9095C6DC901002C03D05B6D012B03D0EF
:1072740006E0F34B2E3301E0F14B35331B5C19432D
:107284005161F04A51691E239943ED4B3C33185C1C
:1072940040000843506110BDF0B5EB4D06682B6902
:1072A40041688BB004469E4202D1686981426ED027
:1072B400E64A106807273F02B843CF007F1AE04927
:1072C4005E397918715C4907490D014311602068E2
:1072D400984202D0C0B2FFF7BFFFDB486168406943
:1072E400814204D1D84821680069814272D0D848CB
:1072F4000990D848029000250120FFF76FFAD24880
:10730400466903692A460C204243099810184168CB
:10731400844620688646984214D07F273F02B943AA
:10732400C74F786D002803D07F6D012F04D009E08A
:10733400C34F70462E3702E0C14F704635373F5C6D
:107344003F0239436768B7420DD0032040078143A9
:107354000091F900CF1BBA4970465E397918405C38
:107364004107009801436046416002981718786805
:1073740022689A4214D07F2109028843B049496D9A
:10738400002905D0AE49496D012904D008E026E062
:10739400AB492E3101E0AA493531895C0902084321
:1073A40061688C46B1420ED00146032040078143F8
:1073B4008E466046C100081AA14918394018105C6D
:1073C40071464007084378606D1C282D9AD300202D
:1073D400FFF704FA9C4821680161616841610BB0C0
:1073E400F0BD0146964A00206A324300D35A8B42CC
:1073F40003D3401CC0B20628F7D370470146904A15
:10740400002058324300D35A8B4203D3401CC0B2ED
:107414000928F7D3704770B5894D0022803DAB1C15
:107424001C46D6342978002910D051005E5A864271
:1074340002D35E5A0B3601E05E5A0B3E6652521C72
:10744400D2B2082AEED30020287070BD5100665ACB
:107454008642EED8665A8642EED35E5A8642EBD90D
:10746400E7E770B5764D0022803D2B4616331C4667
:10747400D434297D002910D051005E5A864202D3AB
:107484005E5A123601E05E5A123E6652521CD2B265
:10749400062AEED30020287570BD5100665A864234
:1074A400EED8665A8642EED35E5A8642EBD3E7E7BD
:1074B40069490001081A41030203891882028918E4
:1074C4004202891802028918820189180201891866
:1074D400C200891808180121C904002802DD4018D7
:1074E40000157047081A00154042704708B580001F
:1074F4000090002801DD401EFAE708BDF0B50546FE
:10750400564889B041680024072212049143052299
:107514001204114341604D484168514A0902090A65
:10752400C909C901954201D14E4A04E04C4A121FCF
:10753400954201D14C4A114341600D21484E090244
:107544000C3E3160494A91690C2309090901194328
:107554009161816838239943182319438160106924
:107564001115084310613648C76C2820FFF7BEFF89
:107574000921684600F0D6FD0BE07068C003FCD515
:107584000A20FFF7B3FF286804197068C003FCD40D
:107594007F1E002FF1D13148416807221204914324
:1075A40001225204114341602548C16C204600F079
:1075B40035FD09B0F0BD70B5054629480024001F0B
:1075C400FFF79CFF2A49896BC9000BD42849403135
:1075D4008A698969120603D54906490E4C4201E0BD
:1075E4004C06640E001B002D00D02860FFF760FFDE
:1075F40070BD2049800240180102820189184201AD
:107604008918C20089180818012189044018C00C7F
:10761400704770B504461248FFF770FF14498A6B2F
:10762400920029D48A6B92018A6B03D5D201D20DC0
:10763400524222E0D201D20D1FE0000000000240BD
:1076440060840010000802406083001000F40040D1
:1076540000280240002A0240A076000000F000400A
:10766400CCB10040020000FB030000F900B0004070
:1076740000A00040433D00000022896B490012D461
:10768400FE498B6989691D02FD4B07D519400829FC
:1076940001D9012100E00021494205E019400829EF
:1076A40001D9012100E00021801A6B22D200801A46
:1076B40041438900800408189104401801214904B9
:1076C4004018800C002C00D02060FFF792FF70BDA2
:1076D4007CB5002834D0EB4C606C002830D0684670
:1076E400FFF797FF01A8FFF766FF0198FFF7B9FEC0
:1076F4000098FFF790FE0098FFF780FE0646019879
:10770400FFF76FFE054600F099FB012818D12146CA
:10771400BC39019808610098486160C100F00CFC14
:10772400002807D0A06C012804D0002000F0FCFA47
:10773400052805D1D348BC38FFF7AEFD0020A0646E
:107744007CBD0120C4E70023036003681B04FCD54F
:1077540001238B40CC4913430B6001680029FCDAF8
:1077640008467047F0B5C94987B0CA6F0022019234
:107774008968C74C00297DD000287CD0C548806822
:10778400C004C50EC4480495C068C44E800BC0072D
:107794002BD0BD48001D072100910290A1693143FF
:1077A400A161019A0099FFF7CEFF4708BC49400444
:1077B4000F40400C0743A069B043A061019A0099AF
:1077C4000298FFF7C0FF4408B54940040C40400C40
:1077D4000443390B200B0591401A00D54042800226
:1077E40000F01CFC064603943EE0A748AD4F083069
:1077F400029006200090A548806F7D2109028842EE
:10780400D9D1A94FD7E7064604950394BC4203D2C5
:107814001F2D04D26D1C02E0002D00D06D1E9D4969
:1078240088681F22120290432A0202438A600120C0
:10783400FFF75CFE019A00990298FFF784FF440861
:10784400974940040C40400C04430598210B081A46
:10785400059900D54042800200F0E0FB1F2D05D0C1
:10786400002D03D0B04201DA0528CCDCB0420CDD97
:10787400884901E017E02BE0039C88681F2212026C
:107884009043049A120202438A60884AA00BB90BFF
:10789400504300F0C3FB864908607C4800680968CF
:1078A40088420FD114E0A06904210843A061082193
:1078B4000843A0617E487D490160744909680068F5
:1078C400814205D07B480168002901D000688047C7
:1078D4006E4C6068012807D10020606020465C304F
:1078E40000F013FA00F0D4F921687148026891425B
:1078F40003D00068206000F0F6F907B0F0BD012065
:1079040030E7624B10B552002833DA605D4A5064A8
:10791400D1640028184602D000F0F7F910BD00F039
:1079240007FC10BD00B5644900224A60012048608C
:107934000220FFF7DBFD4A60C820FFF7D7FD00BD3A
:10794400F0B58BB0002006904C488069000E029080
:107954005A4841684908490041604E488168C9084D
:10796400C900891D8160544D686908905448686154
:107974005448C16807915449C1600121534809041E
:107984000162FF215248083181605249086801228E
:107994000590104308601046FEF720FF6869400018
:1079A400400868614C48E8602C6960004008286120
:1079B400FFF7B8FF43484030006AAF030006460DA6
:1079C400204638432861FFF7ADFF3E484030006A47
:1079D4000006400F064368694049084031050143E9
:1079E400394369610320400720432861FFF79AFF68
:1079F400002734493E463D4640313A464A62334BBD
:107A040037481862FF204130FFF770FD01204862BB
:107A1400FF204130FFF76AFD886A4A62C71930487F
:107A24002A4B401C18620420FFF760FD01204862C5
:107A3400FF204130FFF75AFD886A6D1C8619102D0E
:107A4400DCD300204862B91B264800F0E7FA074659
:107A54000A484038806B002803DB0298002800D0D5
:107A64008700214800250A9010486900C6380E187E
:107A74008004314600F0D2FA314637E040A000409D
:107A840000FF7F006084001000C00040608300108D
:107A940000B0004000F40040280804100002000078
:107AA4000080FF3F80BA8C0100409601280A000044
:107AB400C01F0410C41F04100000024000F0004066
:107AC4005591026A400802400F80000000180440EB
:107AD400004A0240005002406227C605FFFF0F80A3
:107AE4007F00010000B8130000280240454AC63A4E
:107AF400504300F093FA434A3146C63A504300F0EB
:107B04008DFA01217843C9044018000DFF2800D9DB
:107B1400FF20002D00D106900C210A9A69438A188F
:107B24009168090A0902014391606D1C282D9BD3B9
:107B3400354804610899416134490598086034491D
:107B4400002088603349086233490798C8600020E0
:107B5400FEF744FE069842E4FEB500260124002800
:107B640014D0012811D0042820D006280DD10120DA
:107B7400FFF7AEFD00940423284A29A12D4801965D
:107B8400029400F0DBFAFFF7DBFEFEBD0120FFF7F5
:107B9400E9FD00F0A8F8274800940823264A27A105
:107BA40034300196029400F0C9FAFEBD26480068FC
:107BB400264909681F4D401A25494843283DE9686C
:107BC4004018E860E9682348814210D3074601461B
:107BD400E86800F023FA20490A684B6880185E417F
:107BE40008604E603946E86800F018FAE9606C6095
:107BF400104800F08AF80020FFF7B4FD00F073F895
:107C0400FEBD0000280A00000000024000500240AF
:107C1400004A024000180440400802404777001020
:107C2400566261745F5674656D705F43616C69621E
:107C340000000000888300100379001032364D5F85
:107C440043616C696200000054820010B882001025
:107C54007102000020A107004002041002462C49D2
:107C64000020C043096804E08A4201D10020704723
:107C740089690029F8D1704710B504460B460846B7
:107C8400FFF7ECFF002802D020689861236010BD44
:107C9400F8B51F4E00252F46306821E01D4A84693F
:107CA400816813685268591ABA4117D301790029B7
:107CB4000CD0184BC26819685B685118054681607E
:107CC400016900290BD04069884708E03168814286
:107CD40001D1346000E0AC618761F1E705462046DC
:107CE4000028DBD1F8BD10B50B4801680B484143AF
:107CF4000B48491E41610B490722CB691C02240A27
:107D04000023CC618361026110BD01460048B3E7E2
:107D14001C02041040020410C01F04108813000049
:107D240000E000E004ED00E003B40148019001BD6F
:107D3400F9A2010003B40148019001BD8FA0010024
:107D440003B40148019001BDE99F010003B4014857
:107D5400019001BD29DE010003B40148019001BD79
:107D64008B42000003B40148019001BD69900100F9
:107D740003B40148019001BD51A2010003B40148BC
:107D8400019001BD09C9010003B40148019001BD7E
:107D9400F552000003B40148019001BD415D0000AB
:107DA40003B40148019001BDA1A2010003B401483C
:107DB400019001BD5BDE010003B40148019001BDE7
:107DC40017DE010003B40148019001BD9DBB010011
:107DD40003B40148019001BD11BF010003B401487F
:107DE400019001BDADD0010003B40148019001BD73
:107DF4009FB9010003B40148019001BD6D9C0100CD
:107E040003B40148019001BD7DBB010003B40148E6
:107E1400019001BDDDDB010003B40148019001BD07
:107E24001502000003B40148019001BD3BB80100F4
:107E340003B40148019001BD5BDC010003B40148B7
:107E4400019001BD37CF010003B40148019001BD89
:107E5400F5D6010003B40148019001BDFBB7010050
:107E640003B40148019001BD150B000003B401489F
:107E7400019001BDD5BD010003B40148019001BDCD
:107E8400D1D4010003B40148019001BDEDD4010037
:107E940003B40148019001BDFBCF010003B40148C4
:107EA400019001BDB70A000003B40148019001BD6F
:107EB400170E000003B40148019001BDD500000075
:107EC40003B40148019001BDBFCD010003B40148D2
:107ED400019001BDE311000003B40148019001BD0C
:107EE400DD2E010003B40148019001BD8566000048
:107EF40003B40148019001BD5166000003B4014878
:107F0400019001BDAF2F010003B40148019001BDF0
:107F14004766000003B40148019001BD8150000090
:107F240003B40148019001BD01BA010003B4014842
:107F3400019001BDBF90010003B40148019001BD4F
:107F4400AF31010003B40148019001BDF35D0000AD
:107F540003B40148019001BDAF82000003B401489D
:107F6400019001BD3D53000003B40148019001BDDF
:107F74001DBA010003B40148019001BDB1A0010084
:107F840003B40148019001BDDB8B010003B4014837
:107F9400019001BDB5B0000003B40148019001BDDA
:107FA400E919010003B40148019001BD7DA201005B
:107FB40003B40148019001BD33A4010003B4014896
:107FC400019001BDC7A4010003B40148019001BDA3
:107FD400A19C010003B40148019001BD099F010067
:107FE40003B40148019001BD9590010003B4014818
:107FF400019001BD1197010003B40148019001BD36
:10800400819C010003B40148019001BD77D50100B2
:1080140003B40148019001BD01DD010003B401482E
:10802400019001BDD5DC010003B40148019001BDFC
:10803400A7B2010003B40148019001BD479C0100AF
:1080440003B40148019001BD31B7010003B40148F4
:10805400019001BD43A5010003B40148019001BD95
:108064009913000003B40148019001BDD33101000C
:1080740003B40148019001BD1DC9010003B40148C6
:10808400019001BDD196010003B40148019001BDE6
:10809400DBC9010003B40148019001BD3DC90100E1
:1080A40003B40148019001BD3968000003B40148DC
:1080B400019001BD6525010003B40148019001BD93
:1080C400EF1A010003B40148019001BD03CC010083
:1080D40003B40148019001BD83CD010003B40148FC
:1080E400019001BD83E2010003B40148019001BD88
:1080F4002D6A000003B40148019001BDFFC90100CD
:1081040003B40148019001BD016A000003B40148B1
:10811400019001BD99C9010003B40148019001BD5A
:108124005DCB010003B40148019001BD5BDE010099
:1081340003B40148019001BD51D7010003B40148C3
:10814400019001BDFDD6010000000000FC8100107B
:10815400D800041001000100050800008596010004
:10816400000300006162001001030000F7920100A7
:10817400020300007993010003030000A3930100AC
:1081840004030000D59301000A03000003940100D6
:10819400050300007F9401000F030000B194010067
:1081A40012030000E594010013030000359501005B
:1081B400140300006B95010015030000AB9501004A
:1081C40016030000F1950100170300003B9601001F
:1081D400180300002B9401003303000051630010C6
:1081E40035030000E9620010360300000F6300103D
:1081F40037030000316300105C810010140000009C
:10820400B3550010FF550010095600109756001082
:10821400B95600100000000000000000000000003B
:10822400FBBE0100FB6F0010F3BE0100F5BE0100B0
:10823400000000000400000001000000BD63001005
:10824400C5630010AD5F00100000000000000000D6
:108254000000000000000000010001000000000018
:10826400000000000000000069260100C92601008A
:10827400A1270100132801002962001075280100BC
:108284009F280100F32801001F2901006B29010028
:108294009729010000000000000000000000000019
:1082A40000000000000000000000000000000000CA
:1082B40011000000000000000000000000000000A9
:1082C400130C0000135200100B0E0000915200100A
:1082D400010A000095510010110100004F530010D5
:1082E4000000000000000000C48200100400000030
:1082F400E4820010EC8200100483001001000800E6
:10830400000000000000000000380000B15400101C
:1083140001380000C5540010023800001355001045
:1083240000000000000000000C83001003000000A7
:10833400000000002C83001044830010010008009A
:108344000000000000000000000000000101000027
:1083540000000000A17100102F00000000000000C8
:10836400000000000100000000000000FF00000009
:10837400FF00000000000000A00FB80B0000000088
:1083840000000000000000000000000000000000E9
:1083940000000000000000000000000000000000D9
:1083A40000000000000000000000000000000000C9
:1083B40000000000000000000000000000000000B9
:1083C40000000000000000000000000000000000A9
:1083D4000000000000000000000000000100320462
:1083E400C5035803FD02EB02C702B502A3029002C3
:1083F400010098073C07E0065606FA059E050000B2
:108404000000000000000000000000000101010164
:108414000101010202020202020203030303030335
:108424000304040404040404040404040404040508
:1084340005050505050505050505050505050505E8
:108444000505050501010101010101010101010108
:108454000101010101010101010202020202020201
:1084640003030303030303040404040404040404CF
:1084740004040404040505050505050505050505AD
:1084840005050505050505050505344455566778B4
:1084940079474958586778790808070705030100A0
:1084A40001000000010000000200000064640000FC
:1084B40000000000000000000000000000000000B8
:1084C40000000000000000000000000000000000A8
:1084D4000000000000000000000000000000000098
:0484E4000000000094
:04000005000000C136
:00000001FF
